:400000000080002011000000251800002518000008B5044B1A6803F53F5302331A6001F021FC00BFFA46004010B5054C237833B9044B13B10448AFF300800123237010BDDF
:40004000C882FF1F0000000068330000084B10B51BB108490848AFF300800848036803B910BD074B002BFBD0BDE81040184700BF00000000CC82FF1F68330000C880FF1FCA
:4000800000000000F0B593B02A4802F031FA09AC294D0FCD0FC40FCD0FC42B6823609DF844303B2B03D801338DF8443015E03C2B08D100238DF844309DF8383001338DF8AC
:4000C00038300AE03C2B08D19DF83830182B04D100238DF844308DF838306C4609AD0FCD0FC40FCD0FC4D5F800E0C4F800E0124EF76A34466D460FCD0FC40FCD0FC4C4F839
:4001000000E00023B362022386F824307D69BB6873B13DB90CE0996855F8240001F0C4FE013400E00024044BDB6A1A699442F2D313B0F0BD7C340000D880FF1F2DE9F043B2
:40014000B9B007460E46DFF8D8810DF1BC0E44460FCCAEE80F000FCCAEE80F002568CEF800508DF8C4600DF1080E0DF1BC0CBCE80F00AEE80F00BCE80F00AEE80F00CEF857
:400180000050D8F82C90C6460DF1080CBCE80F00AEE80F00BCE80F00AEE80F000023C8F82830022388F82430D9F81450D9F8083073B13DB90CE0996855F8240001F074FE48
:4001C000013400E00024564BDB6A1A699442F2D3002E50D1534802F08BF99DF8C82038AB03F8482D0193009700231A4603214E4800F056FCDFF828E114AD74460FCC0FC5DE
:400200000FCC0FC526682E602FAD14AF0FCF0FC50FCF0FC537462E609DF898308DF8C8300BAD2FAE0FCE0FC50FCE0FC52F60DEF82CC075460BAE0FCE0FC50FCE0FC50023CA
:40024000CEF8283002238EF82430DCF81450DCF80830002B60D03DB95EE0996855F8240001F022FE013400E000242D4BDB6A1A699442F2D350E0012E4ED12C4802F038F9E2
:400280009DF8D42038AB03F8902D0193009700231A460321244800F003FCDFF884E026AD74460FCC0FC50FCC0FC526682E602FAD26AF0FCF0FC50FCF0FC537462E609DF8F6
:4002C00050308DF8D4301DAD2FAE0FCE0FC50FCE0FC52F60DEF82CC075461DAE0FCE0FC50FCE0FC50023CEF8283002238EF82430DCF81450DCF8083073B13DB90CE0996828
:4003000055F8240001F0D0FD013400E00024044BDB6A1A699442F2D339B0BDE8F08300BFD880FF1F9C3400006C330000C034000008B5044802F0DCF801210520FFF7FEFE02
:4003400008BD00BFE834000008B5044802F0D0F801210320FFF7F2FE08BD00BF1035000008B5044802F0C4F801210220FFF7E6FE08BD00BF3835000008B5044802F0B8F8B5
:4003800001210846FFF7DAFE08BD00BF5C35000008B5044802F0ACF800210520FFF7CEFE08BD00BF8035000008B5044802F0A0F800210320FFF7C2FE08BD00BFAC35000018
:4003C00008B5044802F094F800210220FFF7B6FE08BD00BFD435000008B5064802F088F800210120FFF7AAFE01210846FFF7A6FE08BD00BFFC35000008B5044802F078F875
:4004000000210120FFF79AFE08BD00BF2836000030B58DB0224802F06BF803AC214D0FCD0FC40FCD0FC42B6823609DF81430CBB94921182000F052FD4FF6FF7300931B23D2
:4004400024224921182000F059FD4921442000F045FD002300931B2324224921442000F04DFD1AE0012B18D14921182000F036FD002300931B2324224921182000F03EFD31
:400480004921442000F02AFD4FF6FF7300931B2324224921442000F031FD0DB030BD00BF50360000D880FF1F10B582B00D4802F01FF84921182000F011FD002400941B234D
:4004C00024224921182000F019FD4921442000F005FD00941B2324224921442000F00EFD02B010BD74360000F0B593B0304801F0FFFF09AC2F4D0FCD0FC40FCD0FC42B68D3
:4005000023609DF82C3093B99DF83830172B0AD80133DCB28DF83840274801F0E9FF204601F0DAFF17E000238DF8383013E0012B11D19DF844303B2B0AD80133DCB28DF803
:4005400044401E4801F0D4FF204601F0C5FF02E000238DF844306C4609AD0FCD0FC40FCD0FC4D5F800E0C4F800E0124EF76A34466D460FCD0FC40FCD0FC4C4F800E000239A
:40058000B362022386F824307D69BB6873B13DB90CE0996855F8240001F086FC013400E00024044BDB6A1A699442F2D313B0F0BD98360000D880FF1FBC360000CC360000A8
:4005C00038B5444A138801339BB21380424AA2FB0312920802EB82029B1A9BB2CBB93F4B9A680521197000215960022159705569936873B13DB90CE0996855F8240001F0DF
:4006000053FC013400E00024344B9B681A699442F2D3304B1B88324AA2FB0312D2094FF4966101FB12339BB2F3B90024294B1C802C4801F05DFF294B9A68042119705C6022
:40064000022159705569936873B13DB90CE0996855F8240001F028FC013400E000241F4B9B681A699442F2D31A4B9B78012B2FD101F0ECFE01282BD1164AD3780133DBB274
:40068000D370154AA2FB0312120902EB820291005B1A13F0FF0F1BD100210E4B99700F4B9A68032018705960022159705569936873B13DB938BD996855F8240001F0F4FB0E
:4006C000013400E00024054B9B681A699442F2D338BD00BFE482FF1FCDCCCCCCCC80FF1FB5814E1BDC360000F0B58DB00F4801F0FFFE0F4B1F780F4E03AC35460FCD0FC47E
:400700000FCD0FC42B68236003AB0193009700231A460321084800F0C3F9084801F0E8FE9DF80C3033700DB0F0BD00BFF4360000CC80FF1FD880FF1F903300000C370000A4
:4007400030B58DB003AC234D0FCD0FC40FCD0FC42B6823609DF82C101F4BA3FB0102D20802EB82046000091A8DF80A108DF80B209DF82020A3FB0213DB0803EB83004100AC
:40078000521A8DF808208DF8093002990191134BDA68196000219960022119715569936873B13DB90CE0996855F8240001F07CFB013400E00024094BDB681A699442F2D3CE
:4007C000064B1B79022B03D10448C3685B6898470DB030BDD880FF1FCDCCCCCC0881FF1F38B501F02BFE012802D14FF0010408E001F02CFE012804D101220F4B9A704FF0F4
:4008000002040E4B9A681C7000215960022159705569936873B13DB938BD996855F8240001F042FB013400E00024044B9B681A699442F2D338BD00BFE482FF1FCC80FF1F52
:40084000684620F007018D4619B572B6EFF311841E4B1B68DBB20F2B10D9103B23F0030202F1604202F564421168DB0003F01803E0229A400A4022FA03F306E00F2B03D1B3
:40088000134B1B681B0E00E0002383F31188114A136801331360012B01D101F09FFF62B6FFF79EFF72B684F3118801F051FC094A1368013B13601BB901F099FF01F05DFFCA
:4008C00062B6BDE819408546704700BF04ED00E020ED00E03884FF1F10B5074C22680221064800F0E9FD23680A33236013F5807F01D90022226010BDE882FF1F3037000094
:4009000000B583B000230193012001F04DFB01A9022001F0A9FA019801F078FA019A0121014800F0E1FDEFE74437000008B5012000F028FE08BD00BF08B5002001F00EFAEF
:4009400008BD00BF684620F007018D4619B572B6EFF311841E4B1B68DBB20F2B10D9103B23F0030202F1604202F564421168DB0003F01803E0229A400A4022FA03F306E03C
:400980000F2B03D1134B1B681B0E00E0002383F31188114A136801331360012B01D101F01DFF62B6FFF7C8FF72B684F3118801F0CFFB094A1368013B13601BB901F017FF65
:4009C00001F0DBFE62B6BDE819408546704700BF04ED00E020ED00E03884FF1F08B562B600F0E4FA642000F011FA00210F2000F075FA0D4800F056FD4B21372000F06EFABA
:400A0000032000F073FA094800F04CFD45F6BF52074B1A60074A136843F002031360002001F084FCFBE700BF503700006437000014E000E010E000E008B501F03FFD01F04A
:400A4000D9FC0B4A136843F0050313600A221146002001F005F8032000F08EFF022000F08BFF012000F088FF01F0A6FC08BD00BF10E000E000BFFDE730B4002309E003EB56
:400A80004305AC00045D944201D118B205E001339BB28B42F3D34FF0FF3030BC704700BF2DE9F84F04460D4691469A469DF828800B9B93F800B0684801F01AFDBBF1050F5F
:400AC0001CD8DFE80BF003070B0F1317634801F00FFD16E0624801F00BFD12E0614801F007FD0EE0604801F003FD0AE05F4801F0FFFC06E05E4801F0FBFC02E05D4801F031
:400B0000F7FC5A4629462046FFF7B6FFB0F1FF3F00F0958000EB400083001C4465680DB1268900E00026002D00F08D80002E00F08E8000247DE0274604EB44029300EB5C1D
:400B4000434574D104EB440293002B445B6813B1984701286BD17A00D1198B0019462B449C680D446E78B9F1000F0FD111E005EB4502930009EB030219F803309B4502D16A
:400B8000936803B198470135ADB200E000255545EDD304B1A047B9F1000F0FD111E004EB4402930009EB030219F803309E4202D1536803B198470134A4B200E0002454455F
:400BC000EDD30B9B1E702C4801F092FC052E28D8DFE806F003090F151B21204801F088FC0020BDE8F88F1E4801F082FC0020BDE8F88F1C4801F07CFC0020BDE8F88F1A48ED
:400C000001F076FC0020BDE8F88F184801F070FC0020BDE8F88F164801F06AFC0020BDE8F88F144801F064FC0020BDE8F88F0134A4B2A6423FF67FAF0020BDE8F88F6FF081
:400C40001300BDE8F88F6FF01600BDE8F88F6FF01600BDE8F88F00BF6837000078370000883700009C370000B0370000C0370000D0370000E4370000F437000010B504461A
:400C8000013001F035FC064801F032FC04F1110001F02EFC034801F02BFC002010BD00BF103800009837000038B5134B988908B319461C89631C9BB2104AA2FB035252098F
:400CC000642505FB12330B810138888101EB44018B7B13B1012B04D006E0002001F008FD02E0012001F004FD034B03EB4404E07B01F044FC38BD00BFEC82FF1F1F85EB513C
:400D000030B5ABB01B4B9B89632B17D92AAD032305F8A83D184B1868CDF80100174C0FCCCDF81100CDF81510CDF81920CDF81D302846FFF7A3FF6FF0070019E00D4D6C8921
:400D4000621C92B205EB4404A073E1730C49A1FB02014909642000FB11226A8101339BB2AB81012B03D1FFF79FFF002000E000202BB030BDEC82FF1F6C3D0000703D000024
:400D80001F85EB512DE9F04180460E4617461D462A210020FFF7B4FF00210120FFF7B0FF194C94F8D6104144C9B20120FFF7A8FF00210120FFF7A4FF94F8D6103944C9B25D
:400DC0000120FFF79DFF2B210020FFF799FF00210120FFF795FF94F8D7103144C9B20120FFF78EFF00210120FFF78AFF94F8D7102944C9B20120FFF783FF2C210020FFF75B
:400E00007FFFBDE8F08100BFEC82FF1F08B5642800D9642001F014FC08BD00BF10B5044636210020FFF76CFF04F003002A4B83F8D80003284ED8DFE800F00215283BC2219D
:400E40000120FFF75DFF244BA022A3F8DA208022DA8093F8DC2083F8D62093F8DD2083F8D72010BDA2210120FFF74AFF1A4BA022DA808022A3F8DA2093F8DC2083F8D720AA
:400E800093F8DD2083F8D62010BD08210120FFF737FF114BA022A3F8DA208022DA8093F8DC2083F8D62093F8DD2083F8D72010BD62210120FFF724FF074BA022DA808022BB
:400EC000A3F8DA2093F8DC2083F8D72093F8DD2083F8D62010BD00BFEC82FF1F024BA3F8DE00A3F8E0107047EC82FF1F08B90120FFE7014B18717047EC82FF1F2DE9F04198
:400F00001F46BDF818501F4BB3F90630834236DD90461C4AB2F8DA20914230DA00EB0804013C9C4202DB1B1A0FFA83F87B18013B9A4201DC571A3FB2C0B2C9B2CB19013BAF
:400F400000EB0802013ADBB2D2B2FFF71BFF2E0AEDB2012001F0CCFB0FE031460220FFF7CFFE29460220FFF7CBFE013C24B200E04446002CF1DC013F3FB2002FF8DCBDE886
:400F8000F08100BFEC82FF1F00B583B0064AB2F9DA30B2F90620009000210846FFF7AEFF03B05DF804FB00BFEC82FF1FF8B5364B8022DA80A022A3F8DA20002483F8D8408B
:400FC000A3F8DE40A3F8E04001251D714FF6FF72A3F8E220A3F8E4405D711C6083F8DD4083F8DC4083F8D64083F8D7401C815C819C8101F003FB284601F086FB642000F041
:401000008DFC204601F080FB642000F087FC284601F07AFB142000F081FC29462046FFF76FFE322000F07AFC11212046FFF768FE782000F073FC0F22144D14E02C4614F80A
:40104000021B0020FFF75CFE6A78254606E06E1C29780120FFF754FE22463546531EDCB2002AF4D13A46531EDFB2002AE6D10220FFF7D4FE0020FFF787FF01F02BFB6420C7
:4010800001F0DEFAF8BD00BFEC82FF1F15380000002821DB114BB3F9063098421CDA00291ADB0E4BB3F8DA30994215DA10B51446C0B2C9B24B1C421CDBB2D2B2FFF762FEBA
:4010C000012001F015FB210A0220FFF719FEE1B20220FFF715FE10BD704700BFEC82FF1FF8B51E46164BB3F90630834226DD1546134BB3F8DA30994220DA0A44013A93422A
:4011000001DC5D1A2DB2C0B2C9B24B19013BDBB20246FFF737FE370AF6B2012001F0E8FA08E039460220FFF7EBFD31460220FFF7E7FD25466A1E14B2002DF2D1F8BD00BF1B
:40114000EC82FF1F2DE9F04F8BB00290039115460493BDF850709DF854A07F4B1A68002A40F09080B3F906300146834240F3F180794BB3F8DA300398984280F2EA800AEB36
:401180004A0253000B44012B00F1E38000EBCA03012B00F1DE804FF00008894683460595049E4EE0059B03EB830343446B4A134493F8585000243EE015F0010F1BD0BAF17E
:4011C000010F09D104EB0B0108EB0900324609B200B2FFF75DFF2BE01FFA8AF00FFA8AF204FB00B108FB00900096134609B200B2FFF784FE1CE0BE421AD0BAF1010F09D122
:4012000004EB0B0108EB09003A4609B200B2FFF73FFF0DE01FFA8AF00FFA8AF204FB00B108FB00900097134609B200B2FFF766FE013464B26D08072CBEDD08F101084FFABE
:4012400088F8B8F1040FADDD049BBB4200F08180BAF1010F08D1029805303B460822039900B2FFF73DFF74E01FFA8AF303EB8300029A10440097DB005246039900B2FFF7F4
:401280003DFE66E0137AEB1ADBB2506800EBC301D2F800B030F8337091F80280CB78079391F90530089391F906200992BAF1010F04D91BB2059313B2069302E0002306935C
:4012C000059300231C46994640E05E1CF6B213F0070F03D17B1C1BF807409FB214F0800F27D0BAF1010F0DD1099B039A99184944089B029A98182844049A09B200B2FFF783
:40130000C7FE16E0059B58191FFA8AF3069A02EB09010FFA8AFE039A01FB0321029A00FB0320049B00937246734609B200B2FFF7E5FD6400E4B20135EDB2334600E0002577
:401340004545C2D309F101095FFA89F9079A9145F5D30BB0BDE8F08FEC82FF1F1438000070B582B04E4B1B68002B43D10A280BD14B4B0022A3F8DE201979B3F8E02002EB3E
:40138000C102A3F8E02088E00D2800F08680444B5B79ABB1424A117901EB41046300B2F8DE402344B2F90620934209DD3C4B0022A3F8DE20B3F8E02002EBC101A3F8E010F1
:4013C000374CB4F8E230B4F9E010B4F9DE5022790192B4F8E420009202462846FFF7B2FE237903EB43035A00B4F8DE301344A4F8DE3052E00A280CD1294A0021A2F8DE1026
:40140000997A1079B2F8E03000FB0133A2F8E03043E00D2841D01A7A90423ED3597A88423BD8821A5C6804EBC204A278E1785AB351B394F905501A494979A9B118490E790B
:401440002A44B1F8DE5002FB0652B1F906108A420ADD134A0021A2F8DE109B7AB2F8E01006FB0316A2F8E0600D4AB2F8E230B2F9E010B2F9DE5016790196B2F8E4200092C9
:4014800002462846FFF75EFE2179054B1879B3F8DE2000FB0122A3F8DE2002B070BD00BFEC82FF1F10B5044602E00134FFF758FF20780028F9D110BDF8B506460F461546AC
:4014C00000240DE006EBC4039A88B5FBF2F302FB13531BB956F83430002098470134A4B2BC42EFD3F8BD00BFF8B505460E461746002409E005EBC4035868384202D055F8FF
:40150000343098470134A4B2B442F3D3F8BD00BF30B5A1B005464B211920FFF7DFFC184C6A782146684601F0FBFA6846FFF7BAFF4B212920FFF7D2FC2A782146684601F0F7
:40154000EFFA6846FFF7AEFF4B214620FFF7C6FCEA782146684601F0E3FA6846FFF7A2FF4B215620FFF7BAFCAA782146684601F0D7FA6846FFF796FF002021B030BD00BFC0
:40158000803D00000C4B5B68034413F1011F01D8094A5360084B5B6B034413F1011F01D8054A5363044B5B6C184410F1011F01D8014B5864704700BFCC80FF1FFEE700BFB0
:4015C000F0B40022174611E050F82760F3B226F0FF0608E001EB420511F812406D78A5550132013BDBB2002BF4D101371B2FEBD9F0BC7047064B1B78DBB203F00701054AA3
:4016000011701B09013213704422034B1A707047CF0100496E5800407658004008B50A46002101F074FA08BD38B50024284B1C80582202331A70192502331D801823254AC8
:40164000137041F2BF2102321180023213700222214B1A7008224FF040231A70032103F5007319701D4B1B78DBB21D490B701D4B1A8041F25122023B1A800CE01A4B1B7804
:4016800003F0010343EA440404F003044FF4F07001F056F8013D0DB1032CEFD115B90320FFF78CFF114B4FF480721A8007221A7000220F490A704820023108701A700222F1
:4016C000033B1A700B4A137843F00703137038BD80400040864000400043004008010049A146004022420040254200400440004006400040A243004008B501F0FDF908BDA8
:4017000038B572B6364A137843F00403137000240CE0344D630019194A0011462A44084691882858FFF77AFF0134E4B2082CF0D900240CE02B48A20011194B000344B3F8ED
:401740004020D96B986BFFF7D7FF0134E4B2012CF0D925494FF09040FFF732FF234A137843F0020313701032137843F0020313701F4C237843F040032370A2F58632513A6D
:40178000137843F01003137008221A491A48FFF7B3FF0A2219491A48FFF7AEFF082219491948FFF7A9FF082218491948FFF7A4FF184A137843F008031370174D61232B706A
:4017C000FFF732FF81232B700122144B1A70FFF711FF0E2221461248FFF78EFF38BD00BFE8460040003E00007000004803500140A0430040C006004802510040C806004877
:40180000C0510040D406004812510040DC06004832510040224300400048004004000840B043004008B501F03BF903680C2B00D1FEE7FEE708B5094B1A681044084BC31AC3
:40184000802B02DC054B186005E001F029F90C2303604FF0FF32104608BD00BF1881FF1F708CFF1F08B5104E104D16E029686B68AC68002204E051F8040B43F8040B0432AE
:40188000A242F8D1E868002203E0002143F8041B04328242F9D11035013E002EE6D101F005F9FFF79BF8FEE7010000000C41000008B5104A104B1A60104A136843F4007368
:4018C000136000230AE0032B03D80D4A52F8231000E00C490C4A42F8231001332F2BF2D90A4B1A780A4B1A70074A0A4B1A60FFF707FF08BD0004FA050CED00E014ED00E0D6
:4019000000000000251800000080FF1FBC760040C080FF1F08ED00E001BE704710B5044605E0084B186800F00BFFA4F50044B4F5004FF6D8034B586800FB04F000F000FF61
:4019400010BD00BF1C81FF1F38B504460D46072902D90020FFF7E0FF1F2C02D90020FFF7DBFF04F01F0000F1604000F564406D01EDB2057038BD00BF38B5EFF3108572B681
:4019800004284ED82D4B53F82030002B4BD02B4A013B42F820302A4B53F82030032B07D10222274B43F820200022264B43F8202000F03EFC244B1B68002B36D1234B1C68CC
:4019C00000F014FCB0F1FF3F31D0214B53F82020204B1B689A422CD9B4F1FF3F03D00221174A42F824101C4A52F820201343194A13600022124B43F8202000F0B3FB174B83
:401A000053F820304BB10024144B43F8204040F0004000F0F5FE20460CE000F0F1FE002008E0032006E0042004E0002002E0002000E0002085F3108838BD00BF7881FF1F57
:401A40002482FF1FFC83FF1F3884FF1F0C82FF1FF43F00001884FF1FDC3F0000D483FF1FF8B5EFF3108472B6012825D800EB4005AB00184DEB5803EB4306B500164E7559F0
:401A80008D421BD34AB103EB43039E00124B1E44B3689A4214D3954214D3A9B103010F4DEB589BB90301EE180127EF507260013900F086F800200AE0032008E0082006E0E2
:401AC000082004E0082002E0082000E0072084F31088F8BD803F0000A83F0000448AFF1F18B108B5C368984708BD704708B508B1406800E00020042816D80C4B53F8203015
:401B000093B10A4A013B42F82030094B53F82030032B07D10222064B43F820200022054B43F8202000F084FB08BD00BF7881FF1F2482FF1FFC83FF1F18B1034640689B684D
:401B400001E00023184604281DD80F4A52F82020CAB10E4A52F82010032914D010B50C4C54F820201A4344F820200A4A52F82020134207D0012905D10222044B43F8202028
:401B800000F056FB10BD7047B43F00002482FF1FFC83FF1FE883FF1F80B108B50378012B06D013B1032B06D008BDFFF79FFF08BDFFF7C2FF08BDFFF793FF08BD704700BFF3
:401BC00030B400EB40029300214AD258214B03EBC2035C68B4F1FF3F04D11E4B03EBC20250602DE01C4B03EB04139B6899420AD2184D05EBC2025060174A02EB04125B1A71
:401C000093601DE01C46144B03EB04139A68891ADB68B3F1FF3F05D00F4A02EB031292689142EFD2B3F1FF3F05D00B4A02EB031295686D1A9560084A02EB0414E0601C46E6
:401C4000054B03EB00108160C46030BC704700BF803F00003481FF1F448AFF1F38B5394A02EBC0035C6852F83030013342F8303000EB40018A0034498A58934203D90022ED
:401C8000304B43F83020B4F1FF3F59D02F4B03EB04139B68002B4ED1214600E019462B4B03EB0113DB68B3F1FF3F05D0274A02EB03129268002AF1D0244A02EB01114FF02A
:401CC000FF32CA601F4A02EBC0004360B3F1FF3F07D01E4A02EB03139A68013A9A6000E02C4604EB44029300194A13441B7A7BB904EB44029300164A13445A68154B53F8EC
:401D0000223003EB83039A0013481044FFF744FF0E4B03EB0413DD68596821B101392046FFF74EFF03E024010022084B1A51B5F1FF3FD5D138BD054A02EB0414013BA36048
:401D400038BD00BF3481FF1FA83F0000448AFF1F803F0000A03F0000583F000038B5EFF3108572B6002838D1FFF778FF204B1B68002B34D11F4B1C6800F038FAB0F1FF3F9D
:401D80002FD01D4B53F820201C4B1B689A422AD9B4F1FF3F03D00221194A42F82410194A52F820201343154A13600022144B43F8202000F0D7F9144B53F820304BB10024D3
:401DC000114B43F8204040F0004000F019FD20460AE000F015FD002006E0032004E0002002E0002000E0002085F3108838BD00BF3884FF1F0C82FF1FF43F00001884FF1FBE
:401E00002482FF1FDC3F0000D483FF1FEFF3108372B6114A1168114A126882B9B1F1FF3F0FD00F4A52F821206AB110B40D4C54F8212022EA000044F82100002007E00220D3
:401E400002E0022000E0012083F31088704783F3108810BC704700BF0C82FF1F3884FF1FB43F0000FC83FF1F04280FD80B4B53F820306BB10A4B53F82030032B0AD059B110
:401E8000084B53F820300B60002070470320704701207047072070470E207047B43F00002482FF1FFC83FF1F38B5EFF3108472B6042853D8324B53F82030002B50D0314B68
:401EC00053F82030032B4DD02F4D55F820200A4345F820202D4A52F82020114244D0012B44D10222274B43F8202000F0A1F9284B1B68002B3CD1274B1D6800F077F9B0F1BF
:401F0000FF3F37D0244B53F82020244B1B689A4232D9B5F1FF3F03D002211A4A42F825101F4A52F8202013431C4A13600022154B43F8202000F016F91A4B53F820304BB1C2
:401F40000025184B43F8205040F0004000F058FC284612E000F054FC00200EE003200CE001200AE0072008E0002006E0002004E0002002E0002000E0002084F3108838BD73
:401F8000B43F00002482FF1FFC83FF1FE883FF1F3884FF1F0C82FF1FF43F00001884FF1FDC3F0000D483FF1F38B5EFF3108472B6364B1D68364B1B68002B5DD1B5F1FF3F6F
:401FC0005CD0344B53F82530002B59D0324B53F82530034256D1314B43F825000122304B43F825202F4B53F825002F490B6823EA00030B602D4B43F825202D4B53F825206F
:40200000224B1A6000F0F2F8B0F1FF3F06D0294B53F82020244B1B689A420DD81B4B1868B0F1FF3F03D000221D4B43F8202040F0004000F0E5FB1AE00021194A42F82010B3
:40204000184A52F820201343174A136000F08AF8164B53F8203043B10022144B43F8202040F0004000F0CCFB01E000F0C9FB00200A4B43F8250006E0022004E0022002E06B
:40208000012000E0002084F3108838BD0C82FF1F3884FF1FB43F0000FC83FF1FE883FF1F2482FF1FDC3F00001884FF1FD483FF1F1082FF1FF43F000008B500F053F8084B20
:4020C00053F8203043B10022054B43F8202040F00040044B186008BD024B186008BD00BFD483FF1F3C84FF1F10B500F07FF8124B1B68B0F1FF3F1AD0104A52F82010104AC9
:402100001268914213D9B3F1FF3F03D002240D4941F8234000210B4B43F820100A4B53F820301A43064B1A60FFF7C6FF10BD43F00043064A136010BD0C82FF1FF43F000032
:402140001884FF1F2482FF1FDC3F00003C84FF1F034B1B6813B10022014B1A60704700BF2C84FF1FF0B4184B19880B0A174AD356B3F1FF3F01D1535601E008335BB2144DF9
:4021800055F82320134850F82200134E56F8224045F82340114D2F6846F822702A60B4F1FF3F09D10E4A42F82340012202FA03F321EA0301044B19800A4B19680A4A42F8A8
:4021C00020101860F0BC70471484FF1F4C3E0000CC81FF1F1C8AFF1F5081FF1F1084FF1F8C81FF1F0C82FF1F1082FF1F0C4B1A88130A0C49CB56B3F1FF3F01D18B5601E03B
:4022000008335BB2B3F1FF3F06D0074A52F82320064B53F8220070474FF0FF30704700BF1484FF1F4C3E0000CC81FF1F1C8AFF1F30B4144B53F82020134C2368134951F89B
:4022400023502560124C44F823004FF0FF3441F82340104951F82210A1420AD10E4951F820400E480188214301800D4941F8223002E0064840F82130064941F8223030BCE5
:40228000704700BF6481FF1F1084FF1F5081FF1F1C8AFF1F8C81FF1FF43F00001484FF1FCC81FF1F10B150F8210070474FF0FF30704700BF0122014B1A60FEE73484FF1F58
:4022C00070B50546124B53F8306000241CE0104B03EBC50321465868FFF7E4FF0D4A52F82030013B42F820300B4B53F82030032B07D10222084B43F820200022074B43F8B6
:402300002020FFF795FF0134B442E0D370BD00BF4C3F00007881FF1F2482FF1FFC83FF1F18B908B5FFF7CCFF08BD7047194B1A4ADA621A4A9A631A4ADA63EFF3108272B699
:40234000184B1B6813BB10B5044600F053F8164B1C600122134B1A602046FFF7E1FFFFF745FFB0F1FF3F0ED0104B53F82030104A11680B43136000220E4B43F82020FFF7DE
:40238000F1FE00F03DFA62B6FFF794FF82F31088072070470080FF1FC127000085270000450900003484FF1F648AFF1FDC3F00001884FF1F2482FF1F08B5EFF3108272B627
:4023C000094B1968094B1B6833B94FF0FF30084B43F82100002000E0022010B9084600F068FA82F3108808BD0C82FF1F3884FF1F3C81FF1F38B50D4B1D68EFF3108472B602
:4024000000F0AEF90A4A136843F07F431360094B2B6403210020FFF797FA074A136843F00103136084F3108838BD00BF08ED00E020ED00E04108000000E100E0024B18783E
:40244000C0F3C000704700BF01510040024B1878C0F30010704700BF015100407222084B1A70202202331A700622A3F263131A70472210331A7000224E331A70704700BF31
:402480008965004010B500F063F904460A4A137843F0200313700232137843F010031370A2F20512137843F01003137000F032F8204600F051F910BD9965004008B5054B82
:4024C0001B7823B9FFF7CAFF0122024B1A70FFF7D9FF08BD2084FF1F034B1B7813F0040FFAD1024B18707047666400404664004038B5074B1B782BB938BDFFF7EDFF01345B
:40250000A4B201E005460024285D0028F5D138BD2084FF1F054A137843F0020313701032137843F002031370704700BFA243004008B500F00DF90A4A137843F020031370A8
:40254000033A137843F01003137002F58072137843F01003137000F0FFF800F0E1F808BD9B640040014B1878704700BF68640040014B1878704700BF68650040034B1B783B
:4025800013F0040FFAD0024B18707047686400404B64004008B501E00A4B1B780A4B1B7813F0200FF8D100F0D3F8084B1A7842F001021A701A7802F0FE021A7000F0CCF82A
:4025C00008BD00BF5B640040686500409B64004008B50F22074B1A70FFF7DCFFFFF7C2FFFFF7C6FF0023044A137002F58072137008BD00BF8B6400408864004008B5054BB3
:402600001B7823B9FFF7E4FF0122024B1A70FFF78FFF08BD2284FF1F024A137843F080031370704777640040014B1870704700BF09640040014B1870704700BF496400403B
:40264000014B1870704700BF29640040014B1870704700BF89640040014B1878704700BF69640040014B1878704700BF5964004008B501E0FFF7F6FFFFF7EEFF10F0100F93
:40268000F8D108BD10B5114A137803F0C00343F0090313700E4C237843F0010323706420FFF7C2FF6420FFF7C5FF3220FFF7C8FF0020FFF7CBFF00F04BF8237843F010032E
:4026C000237000F049F8FFF7D3FF10BD776400409964004008B5054B1B7823B9FFF7D2FF0122024B1A70FFF797FF08BD2384FF1F044A137803F0F703C00000F008001843FD
:4027000010707047C0510040044A137803F0EF03000100F0100018431070704730510040054A137843F0010313701032137843F001031370704700BFA24300400000000049
:402740000230800803D000BF01380046FCD17047EFF3108072B6704780F31088704700BF18484FF47F0102680A43026016486FF07F4102680A400260704714484FF0805146
:402780000160704772B611484FF000610160FFF7ABFC0F48006800F0C3F858B10C4800684FF080730B4A0C490FB40FB46FF00600004700BF6FF0060062B6004762B600DF2B
:4027C00008B0704720ED00E01CED00E004ED00E03C84FF1F01280000BD270000EFF30880054908600548006880F3088870470248006880F3088870475C82FF1F5082FF1FF1
:40280000411C8900154A11440968154A136899421AD0F0B444464D4656465F46F0B400B5104C9B002344EFF308851D60116089002144096881F3088802BC8E46F0BCA04651
:40284000A946B246BB46F0BC002806DB00B500F05BF802BC8E46FFF7D3BF7047304000001C84FF1F5482FF1FF0B444464D4656465F46F0B400B5EFF3038308B48000174971
:4028800001440968164A0244EFF30883136088471448804704BC4FF08070024382F3038801BC8646F0BCA046A946B246BB46F0BC704780000A4901440A6882F3088804BC01
:4028C0004FF08070024382F3038808BC9E46F0BCA046A946B246BB46F0BC704708400000308AFF1FE928000008B572B6014B1868FFF7DFFF0C82FF1F08B5024B1868FFF7FD
:40290000B3FF08BD0C82FF1F08B562B6FFF7F4FF72B600F041F8014B186808BD3C84FF1F00280BDA20F000400130054B53F82000044B1B68181A18BF012070470120704722
:40294000304000001C84FF1F054B53F82020054B53F820309A4201D101207047002070477881FF1FC83F000008B5FFF7FBFB084B53F8203043B10022054B43F8202040F040
:402980000040044B186008BD024B186008BD00BFD483FF1F3C84FF1F38B5364B1C680022354B1A60354A52F82430013342F82430334B53F824502046FFF7C6FF012801D06A
:4029C000A54204D103222F4B43F8242003E002222C4B43F824202C4B53F824102B4A136823EA010313602A4B53F82440214B1C60B5F1FF3F0FD0234B53F82530032B07D1B3
:402A00000222204B43F825200022224B43F825202846FFF70DFCFFF7E9FBB0F1FF3F0BD1B4F1FF3F03D00022164B43F8242044F00044194B1C6038BD184B53F82020134B25
:402A40001B689A4208D800220E4B43F8242044F00044114B1C6038BD00210A4A42F82010094A52F820201343084A1360FFF77CFF38BD00BF0C82FF1F2C84FF1F7881FF1F4B
:402A80003C81FF1F2482FF1FDC3F00001884FF1F1082FF1FFC83FF1F3C84FF1FF43F0000014B1868704700BFC082FF1F0E4B70B51E460E4C0025E41AA410A54204D056F886
:402AC000253098470135F8E701F00EFB084B094C1E46E41AA4100025A54204D056F8253098470135F8E770BDF4400000F4400000F4400000FC40000010B5431E0A44914212
:402B000004D011F8014B03F8014FF8E710BD03460244934202D003F8011BFAE7704700000EB400B54FF402719CB0ADF814106FF00041049107914FF6FF711DAB02900690DC
:402B4000084853F8042BADF81610006802A9019300F064F8029B00221A701CB05DF804EB03B07047C082FF1F2DE9F0478E6882469E420C46914698463ED88A8912F4906F8A
:402B80003AD02568096902236F1A656905EB450595FBF3F57B1C43449D4238BF1D4653050FD5294600F040FB064698B13A462169FFF7A2FFA38923F4906343F08003A3816B
:402BC00013E02A4600F08EFB064670B92169504600F0DEFA0C23CAF80030A3894FF0FF3043F04003A381BDE8F08726613E44266046466561ED1BA560464528BF46464946B0
:402C00003246206800F0A8FAA36800209B1BA36023681E442660BDE8F08700002DE9F04F9DB003938B8980461C060D4616460DD50B695BB9402100F0F7FA2860286118B91E
:402C40000C23C8F80030CDE040236B610023099320238DF82930DFF89CB130238DF82A3037463C4614F8013B1BB9B7EB060910D003E0252BF9D02746F3E74B4632462946BC
:402C80004046FFF771FF013000F0A780099B4B4409933B78002B00F0A08000234FF0FF3204930793059206938DF853301A930126052221784E4800F041FA671C049B38B1C7
:402CC0004B4A3C46801A06FA00F018430490EFE7D90644BF20228DF853201A0744BF2B228DF8532022782A2A03D0079A00210A200BE0039A111D12680391002A10DA5242D0
:402D000043F00200079204900BE027463B780134303B092B03D800FB02320121F5E701B107923B782E2B1ED17B782A2B0AD1039B02371A1D1B680392002BB8BF4FF0FF33A8
:402D4000059310E0002319460593781C0A2407463A780130303A092A03D804FB01210123F5E703B1059103223978224800F0E6F940B14023CBEB000003FA00F0049B0137FF
:402D800018430490397806221B487E1C8DF8281000F0D4F988B1194B33B9039B073323F007030833039314E003AB00932A46144B04A94046AFF3008007E003AB00932A4694
:402DC0000F4B04A9404600F093F8B0F1FF3F824603D0099B5344099342E7AB895B0601D4099801E04FF0FF301DB0BDE8F08F00BFB2400000B8400000BC4000000000000061
:402E0000692B00002DE9F04791461F460A698B6806469342B8BF1346C9F8003091F843200C46DDF8208012B10133C9F800302368990642BFD9F800300233C9F800302568B3
:402E400015F0060510D104F1190A07E00123524639463046C04701301AD00135E368D9F800209B1A9D42F1DB94F843302268003318BF012392060FD5E118302081F8430085
:402E80005A1C94F845102244023382F8431003E04FF0FF30BDE8F08704F1430239463046C0470130F4D02268D9F80050E36802F00602042A08BF5D1B2269A3680CBF25EAEE
:402EC000E57500259342C4BF9B1AED184FF000091A344D4509D00123224639463046C0470130D5D009F10109F3E70020BDE8F0872DE9F04317460A7E85B06E2A98460646A3
:402F00000C460C9B01F1430E00F0AE8011D8632A22D009D8002A00F0BB80582A40F0CA8081F84520834955E0642A1ED0692A1CD0C0E0732A00F0B08009D86F2A2ED0702A54
:402F400040F0B8800A6842F020020A603EE0752A24D0782A3AD0ADE01A6801F14205111D1960136884F84230A8E021681A6811F0800F02D0111D196008E011F0400F02F13D
:402F80000401196002D0B2F9003000E01368002B3CDA2D225B4284F8432037E021681A6811F0800F02D0111D196007E011F0400F02F10401196001D0138800E01368227E45
:402FC0005C496F2A14BF0A2208221BE078225A4984F845202268186812F0800F00F104051D6003D1550601D5038800E00368D00744BF42F0200222601BB9226822F0200222
:4030000022601022002084F8430001E049490A226568002DA56008DB206820F0040020602BB9002D7DD175460CE0002B79D07546B3FBF2F002FB1033CB5C05F8013D0346B0
:403040000028F5D1082A0BD12368DA0708D5236962689A42DEBF302305F8013C05F1FF35C5EB0E0323612EE008681A6810F0800F496903D0101D1860136808E010F0400FD5
:4030800002F104001860136801D0198000E0196000232361754616E01A68111D1960156800216268284600F049F808B1401B6060636804E004F1420584F842200123236196
:4030C000002384F84330CDF800803B4603AA21463046FFF797FE013002D14FF0FF3026E023692A4639463046C0470130F5D023689B0710D5002504F1190907E001234A4694
:4031000039463046C0470130E7D00135E368039A9B1A9D42F2DBE068039B9842B8BF184605E00B7804F1420584F842308AE705B0BDE8F083C3400000D440000010B5C9B270
:4031400002449042034605D01C7801308C42F8D1184610BD002010BD884210B501EB020301D8421E0BE09842FBD28118D21AD34204D013F8014D01F8014DF8E710BD9942C5
:4031800004D011F8014B02F8014FF8E710BD000038B50546002944D051F8043C0C1F002BB8BFE41800F0D4F81E4A1368114613B96360146030E0A3420DD92268A01883424E
:4031C00001BF18685B681218226063600C6023E0A24203D813465A68002AF9D118681918A1420BD12168014458188242196013D110685268014419605A600DE002D90C23B0
:403200002B6009E021686018824201BF106852680918216062605C602846BDE8384000F098B838BD2884FF1F70B5CD1C25F0030508350C2D38BF0C25002D064601DBA942B0
:4032400002D90C23336046E000F082F8234B1C681A462146A1B10B685B1B0ED40B2B03D90B60CC18CD501EE08C420BBF63684B681360636018BF0C4615E00C464968E9E792
:40328000174C23681BB9304600F052F820602946304600F04DF8431C18D0C41C24F00304A0420DD12560304600F053F804F10B00231D20F00700C31A0ED05A42E25070BDBD
:4032C000211A304600F034F80130EBD10C233360304600F03EF8002070BD00BF2884FF1F2484FF1FF8B5074615460E4621B91146BDE8F840FFF798BF1AB9FFF749FF284697
:40330000F8BD00F027F885420ED929463846FFF78BFF044650B131462A46FFF7EDFB31463846FFF735FF01E03046F8BD2046F8BD38B5064C0023054608462360FEF77AFA71
:40334000431C02D1236803B12B6038BD688CFF1F7047704751F8040C0028BEBF091851F8043CC018043870470000000003000000F43300000100000004000000D033000037
:403380000300000005000000B833000002000000000000006434000002000000010000003434000004000000020000000434000004000000030000000204000000000000CA
:4033C000E90400000505000000000000E90400000204000000000000E90400000305000000000000000000000103000000000000A904000001040000000000001104000023
:40340000030000000100000000000000790300000202000000000000610300000302000000000000490300000502000000000000310300000102000000000000D903000039
:403440000201000000000000C10300000301000000000000A90300000501000000000000910300000101000000000000F9030000040000000000000085000000496E206974
:403480006E6372656D656E742031206D696E7574652066756E6374696F6E0A00496E2064697370617463682066756E6374696F6E20686F757273207769646765740A000071
:4034C000496E2064697370617463682066756E6374696F6E206D696E75746573207769646765740A00000000496E20434C4F434B5F5F64697370617463685F3235304D5365
:403500005F4D696E2066756E6374696F6E0A0000496E20434C4F434B5F5F64697370617463685F4B524C505F4D696E2066756E6374696F6E0A000000496E20434C4F434B39
:403540005F5F64697370617463685F4B525F4D696E2066756E6374696F6E0A00496E20434C4F434B5F5F64697370617463685F4B4C5F4D696E2066756E6374696F6E0A00D4
:40358000496E20434C4F434B5F5F64697370617463685F3235304D535F486F7572732066756E6374696F6E0A00000000496E20434C4F434B5F5F64697370617463685F4B29
:4035C000524C505F486F7572732066756E6374696F6E0A00496E20434C4F434B5F5F64697370617463685F4B525F486F7572732066756E6374696F6E0A000000496E204376
:403600004C4F434B5F5F64697370617463685F4B4C5F486F7572734D696E2066756E6374696F6E0A00000000496E20434C4F434B5F5F64697370617463685F4B4C5F486FDC
:403640007572732066756E6374696F6E0A000000496E20434C4F434B5F5F73657445646974466F6E74732066756E6374696F6E0A00000000496E20434C4F434B5F5F73651A
:4036800074446973706C6179466F6E74732066756E6374696F6E0A00496E20434C4F434B5F5F696E6372656D656E745769646765742066756E6374696F6E0A00486F7572CE
:4036C0002076616C75653A20000000004D696E7574652076616C75653A20000053657474696E672031206D696E757465206576656E740A00496E20636F6E74726F6C207293
:40370000756E6E61626C650A00000000436F6D706C65746564205374617465204D616368696E652070726F63657373696E670A00C10500003200000041070000FA00000066
:4037400002000000E90600000100000001000000456C656374726F6E696320436C6F636B000000003A00000043757272656E742053746174653A2000435F4953444953503C
:403780004C4159494E470A00435F495345444954494E47484F5552530A000000435F495345444954494E474D494E555445530A00575F4953444953504C4159494E470A009D
:4037C000575F495345444954494E470A00000000575F49534155544F494E4352454D454E540A000044656661756C7420636173650A000000546F2053746174653A20000066
:4038000055415254207374617274656400000000203A20000FB103053C3CB203053C3CB306053C3C053C3CB40103C003280804C101C0C2020D00C3028D2AC4028DEEC50111
:403840001A3601C0E0100422070A2E30252A28262E3A00010313E10F16060D2D26232727252D3B000104133A0105290000000000003E5B4F5B3E3E6B4F6B3E1C3E7C3E1C59
:40388000183C7E3C181C577D571C1C5E7F5E1C00183C1800FFE7C3E7FF0018241800FFE7DBE7FF30483A060E2629792926407F050507407F05253F5A3CE73C5A7F3E1C1C39
:4038C00008081C1C3E7F14227F22145F5F005F5F06097F017F006689956A606060606094A2FFA29408047E040810207E201008082A1C08081C2A08081E101010100C1E0C51
:403900001E0C30383E3830060E3E0E06000000000000005F00000007000700147F147F14242A7F2A12231308646236495620500008070300001C2241000041221C002A1C9A
:403940007F1C2A08083E080800807030000808080808000060600020100804023E5149453E00427F400072494949462141494D331814127F1027454545393C4A494931413E
:40398000211109073649494936464949291E0000140000004034000000081422411414141414004122140802015909063E415D594E7C1211127C7F494949363E41414122A7
:4039C0007F4141413E7F494949417F090909013E414151737F0808087F00417F41002040413F017F081422417F404040407F021C027F7F0408107F3E4141413E7F09090907
:403A0000063E4151215E7F09192946264949493203017F01033F4040403F1F2040201F3F4038403F631408146303047804036159494D43007F414141020408102000414124
:403A4000417F04020102044040404040000307080020545478407F284444383844444428384444287F385454541800087E090218A4A49C787F0804047800447D40002040F4
:403A8000403D007F1028440000417F40007C047804787C080404783844444438FC1824241818242418FC7C08040408485454542404043F44243C4040207C1C2040201C3CFB
:403AC0004030403C44281028444C9090907C4464544C4400083641000000770000004136080002010204023C2623263C1EA1A161123A4040207A385454555921555579414D
:403B00002254547842215554784020545579400C1E5272123955555559395454545939555454580000457C410002457D420001457C407D1211127DF0282528F07C54554558
:403B4000002054547C547C0A097F4932494949323A4444443A324A4848303A4141217A3A42402078009DA0A07D3D4242423D3D4040403D3C24FF2424487E4943662B2FFC67
:403B80002F2BFF0929F620C0887E090320545479410000447D413048484A32384040227A007A0A0A727D0D19317D2629292F28262929292630484D4020380808080808080A
:403BC0000808382F10C8ACBA2F102834FA00007B000008142A142222142A14085500550055AA55AA55AAFF55FF55FF000000FF00101010FF00141414FF001010FF00FF1023
:403C000010F010F0141414FC001414F700FF0000FF00FF1414F404FC141417101F10101F101F1414141F00101010F0000000001F101010101F10101010F010000000FF10F0
:403C40001010101010101010FF10000000FF140000FF00FF00001F10170000FC04F414141710171414F404F40000FF00F714141414141414F700F7141414171410101F10CA
:403C80001F141414F4141010F010F000001F101F0000001F14000000FC140000F010F01010FF10FF141414FF141010101F00000000F010FFFFFFFFFFF0F0F0F0F0FFFFFF9C
:403CC0000000000000FFFF0F0F0F0F0F3844443844FC4A4A4A347E02020606027E027E0263554941633844443C04407E201E2006027E020299A5E7A5991C2A492A1C4C7260
:403D000001724C304A4D4D303048784830BC625A463D3E494949007E0101017E2A2A2A2A2A44445F444440514A444040444A51400000FF0103E080FF000008086B6B083680
:403D400012362436060F090F06000018180000001010003040FF0101001F01011E00191D1712003C3C3C3C000000000054465400427566666572206F766572666C6F770043
:403D80002564000000000000111500000000000000000000000000000000000000000000000000000000000000000000000000000000000000000000000000000000000054
:403DC00000000000000000000000000000000000000000000000000000000000010000000000000001000000FC3D0000000000000000000000000000000000000200000086
:403E0000205100401000405100403000F0510040100000000140800A000B0140000500140140000800400140000A004C014000020050014020000000605200403806004873
:403E40000600800A0140400600488000FF0001010202020203030303030303030404040404040404040404040404040405050505050505050505050505050505050505059E
:403E8000050505050505050505050505060606060606060606060606060606060606060606060606060606060606060606060606060606060606060606060606060606068E
:403EC000060606060606060606060606070707070707070707070707070707070707070707070707070707070707070707070707070707070707070707070707070707070E
:403F000007070707070707070707070707070707070707070707070707070707070707070707070707070707070707070707070707070707070707070707070707070707C1
:403F400007070707070707070707070701000000543F00000000000000000000030000000000000000000000FFFFFFFF00000000020000000000000000000000FFFFFFFF5C
:403F800000000000000000000000000000000000010000000000000000000000010000000000000001000000102700000100000000000000000000000000000001000000C5
:403FC0000000000000000000010000000100000001000000010000000100000080000000010000001000000004000000100000000100000001000000010000001000000004
:404000000400000010000000390A0000750A000001090000D90800002D090000F9280000F9280000F9280000F9280000F928000000000000000000000000000001000000E3
:404040000000000000000000616C726D5F31306D73000000616C726D5F3235306D73000065765F6576656E745F6F6E446174610074736B5F696E69740000000074736B5F4A
:404080006261636B67726F756E64000074736B5F6576656E7400000074736B5F6379636C6963000074736B5F73797374656D00004300232D302B2000686C4C0065666745EA
:4040C00046470030313233343536373839414243444546003031323334353637383961626364656600000000F8B500BFF8BC08BC9E4670474D000000B1180000F8B500BF2E
:40410000F8BC08BC9E4670472900000020410000C880FF1F00020000A809000000000000000000000000000000000000D43D000000000000000000000000000003000000B5
:4041400000000000000000000300000000000000000000000000000000000000AC3D0000000000000000000000000000843D0000708CFF1F0000E02EC05D00001800000035
:4041800000366E01484000005440000000000000FFFFFFFFFFFFFFFFFFFFFFFFFFFFFFFFFFFFFFFFFFFFFFFF01000000020000000300000004000000FFFFFFFF0000000050
:4041C000000000000400000002000000040000000100000001000000010000000100000001000000FFFFFFFFFFFFFFFFFFFFFFFFFFFFFFFFFFFFFFFFFFFFFFFFFFFFFFFFCC
:40420000FFFFFFFFFFFFFFFFFFFFFFFFFFFFFFFFFFFFFFFFFFFFFFFFFFFFFFFFFFFFFFFFFFFFFFFFFFFFFFFFFFFFFFFFFFFFFFFFFFFFFFFFFFFFFFFFFFFFFFFFFFFFFFFFBE
:40424000FFFFFFFFFFFFFFFFFFFFFFFFFFFFFFFFFFFFFFFFFFFFFFFFFFFFFFFFFFFFFFFFFFFFFFFFFFFFFFFFFFFFFFFFFFFFFFFFFFFFFFFFFFFFFFFFFFFFFFFF0300000077
:404280000300000003000000030000000300000060400000704000007C4000008C40000098400000A4400000688CFF1F00000000F489FF1F000000000000000000000000B1
:4042C000000000000000000000000000000000000000000000000000B0400000000000000000000000000000000000000000000000000000000000000000000000000000CE
:404300000000000000000000000000000000000000000000000000006082FF1F0000000000000000000000000000000000000000000000000000000000000000000000007D
:40434000000000000000000000000000000000000000000000000000000000000000000000000000000000000000000000000000000000000000000000000000000000003D
:4043800000000000000000000000000000000000000000000000000000000000000000000000000000000000000000000000000000000000000000000000000000000000FD
:4043C00000000000000000000000000000000000000000000000000000000000000000000000000000000000000000000000000000000000000000000000000000000000BD
:40440000000000000000000000000000000000000000000000000000000000000000000000000000000000000000000000000000000000000000000000000000000000007C
:020000040003F7
:0200000480007A
:40000000036400400265004001030140030501404E06014043070140650801404E0901400D0A0140340B01400A170140421801404A190140521A0140431B01400240014036
:400040000741014005420140034301400244014001450140024601400147014002480140014C01400B4D01400550014001510140860F890D8B0F89728B3881209920A3204D
:40008000AB20030A052009060A020B080C01131015141601170819061A021B181E0121062308250126012801290130013202331E3520370139803B083E013F504036410142
:4000C00046C047BE483849FF4AFF4BFF4EF04F44500C5401580459045A045B045C125D115F0166C06A406B02842C861187028A038C098E10901491029430960C98409C1078
:40010000A301A41CA622B060B21FB501B702B802D280D804D904DB04DC21DD20DF01004001080308060609890A080D100E100F2210201724184019021B081E801F0420086B
:400140002110224025082680272829012D202E022F203001350237243A043D083F22450846024E045505560857105E905F0A710182448508860287208A048B018C608D80C9
:400180008F0497089920A320AF04C0C7C2EFC464CAE1CCE1CEE2D050D220D6F0E002E201E401E6080101030E041D0703091C0A100B030C0D0E1010021101120D13161401C3
:4001C000160218021A081B081C1D201D231C241D28022A04300F3410350F371A3A023BA03E104001454049FF4A074BFF4C404D204EF04F0550085409580459045A045B045E
:400200005C105D015F01604061A862406320800E850D8730880589088A0A8B349514972B98049A099B02A403A524A604A71BB00FB33CB503B802BB08C030C102C5D2C61058
:40024000C80BC9FFCAFFCBFFCDA0CF04D018D405D804D904DA04DB04DD22DF01E040E2C0E440E540E6C0E8C0EAC0ECC0EEC00102020804200608071109200C800D200E60F6
:4002800013081501172419021E401F102004221023102510268028102F8032183409352438083B103D203F0A40084308454049054D084E404F08502059015A085B405C60AB
:4002C0005D045E0264028024834084018680870189088D308E408F80904A9105971098329A289B3DA080A120A219A802A904B020B380C0EAC2F2C474CA82CCA6CEE6D016D3
:40030000D6FBD810E044E290E610050107021506170119042D0435073A803B20580459045C015F010424050207010C900D200EA01501171418021C441D841E02212024286A
:400340002510265827282A402C102D812F08312032083648370138083D203E043F8045A047084D064E08566857C067106D016E046F1D748075809404B404C0F0C2F0C470AD
:40038000CAF8CCD6CE72D070D220D840830884019C01A308AA80B004B608B702E202E401000107020801090410011D0627012C012D0633013601370639803E403F4054400B
:4003C000580459045B045C205F0182048467850C8618887F8D0E8E63901C92629302942496809701980899049C409D08A010A10CA302A460A701A818A902AB0CAC7CAD0CCC
:40040000AE01AF02B01FB301B478B680B70EBA22BB80BF04D602D710D804D904DB04DC11DD10DF010004020A038004020520064408400A600B040E4010881140122014027F
:4004400015C0180419211A401B801D402140220425402720280229252C213080311032023308368038083B403D203F084C014F40594065806620672069046A146B01708CD8
:4004800071107304808087208A48900293209608980199849A20A020A110A280A30CA540A810A980B308C05FC21FC48FCA5FCC1FCE6AD608D870E820001F01220351040747
:4004C0000567061809670C180E07101C1203140115441731180819011B0E1C0220102180240328182E0730033180321C3360350737183F41580459045C115F018302850183
:400500008801890191019201A001A304A702AB04AE01B101B304B502B601B880BF14C024C105C203C401C5C0C70EC812C9FFCAFFCBFFCC62CDA0CEF0CF41D00CD418D80482
:40054000D904DA04DB04DC11DD11DF01E640E702E910EA30EB10ED10EE10EF12014002400310060408400A600B040E401088122215401640190A1F80208021802224251168
:40058000260A28802C102D082F883224340836083701380239143D103E143F0144104581460447104F4157085D02640866808440860488408C018D108E9091449254934482
:4005C000962098809A449B019C40A088A622C04DC21FC49FCAE1CC86CEE7D0F0D210D680D8303380CC1004100A208010A780C080C210E4805280A780AA10D420EC20A78010
:40060000AE80EE107002DC01A402B402EC028220AB80EE209A201280722077808B808E809A20C408DC01DE04E202E40400070A060C0710071C070003809400004000000060
:4006400060000000019800020A1310640402800004980002072138D856000900843800C0849A000080FC040384020098009A00000800020F7F1380E0200000880000450066
:400680006203100000BEFC0D1FFFFFFF2200F008040000000000022804040404000000010000C00040011011C0010011400140010000000000000000000000000000000013
:4006C0001800000000000000800040BCBC00B40000000000000B0B0000000000001818000000000000000000000000000000000000000000000000000000000000000000B0
:4007000000000000000000000000000000000000000000000000000000000000000000000000000000000000000000000000000000000000000000000000000000000000B9
:400740000000000000000000000000000000000000000000000000000000000000000000000000000000000000000000000000000000000000000000000000000000000079
:400780000000000000000000000000000000000000000000000000000000000000000000000000000000000000000000000000000000000000000000000000000000000039
:4007C00000000000000000000000000000000000000000000000000000000000000000000000000000000000000000000000000000000000000000000000000000000000F9
:0200000490006A
:0400000000004005B7
:0200000490105A
:04000000BC90ACAF55
:0200000490303A
:02000000DEAF71
:0200000490402A
:4000000000000000000000000000000000000000000000000000000000000000000000000000000000000000000000000000000000000000000000000000000000000000C0
:400040000000000000000000000000000000000000000000000000000000000000000000000000000000000000000000000000000000000000000000000000000000000080
:400080000000000000000000000000000000000000000000000000000000000000000000000000000000000000000000000000000000000000000000000000000000000040
:4000C0000000000000000000000000000000000000000000000000000000000000000000000000000000000000000000000000000000000000000000000000000000000000
:0200000490501A
:0C00000000012E16106900012E2FEF18D1
:00000001FF